:020000040800F2
:1000000038070020010100082B1C0008231B0008F2
:10001000291C00083D0B00089D200008000000007E
:10002000000000000000000000000000211D00088A
:100030006B0C0008000000002D1C0008231D0008A8
:100040001B0100081B0100081B0100081B01000820
:100050001B0100081B0100081B0100081B01000810
:100060001B0100081B0100081B0100081B01000800
:100070001B0100081B010008290C0008350C0008B2
:100080001B0100081B0100081B0100081B010008E0
:100090001B0100081B0100081B0100081B010008D0
:1000A0001B0100081B0100081B0100081B010008C0
:1000B0001B0100081B0100081B0100081B010008B0
:1000C0001B0100081B0100081B0100081B010008A0
:1000D0001B0100083D2000081B0100081B0100084F
:1000E0001B0100081B0100081B010008DFF80CD0F1
:1000F00000F07EF8004800479125000838070020EE
:100100000648804706480047FEE7FEE7FEE7FEE7B1
:10011000FEE7FEE7FEE7FEE7FEE7FEE7751D0008E7
:10012000ED000008202A04DB203A21FA02F0002129
:10013000704721FA02F3D040C2F1200291400843F7
:10014000194670470649074A0868504343F2390286
:10015000104408604008704701490860704700007B
:100160002C0000206D4EC641D2B201E000F8012BF8
:10017000491EFBD270470022F6E710B513460A4627
:1001800004461946FFF7F0FF204610BD2DE9F05F49
:100190000546002092469B468846064681464024F6
:1001A0001BE02846414647462246FFF7BBFF534621
:1001B0005A46C01A914110D311461846224600F003
:1001C00029F82D1A67EB01084F462246012000212D
:1001D00000F020F817EB00094E41201EA4F10104A5
:1001E000DFDC484631462A464346BDE8F09F000022
:1001F000064C074D06E0E06840F0010394E8070074
:1002000098471034AC42F6D3FFF774FFF02900088A
:10021000102A0008202A04DB203A00FA02F100200C
:1002200070479140C2F1200320FA03F31943904034
:100230007047000010B50178134AFF2907D0EE2956
:1002400004D14078552801D10120107610BD4178A5
:100250005529FBD181780909D170817801F00F010E
:100260005170C17809091170C17801F00F019170C6
:100270000021117604E0431854185B792371491C5E
:1002800003798B42F7DC10BD020000202DE9FF4FFF
:1002900002EB8212FF4B0021C2EBC202D418FE4BCC
:1002A000002202EB8206855C1E44203D05EB85059D
:1002B0000D44521C655D7554102AF2DB491C05295A
:1002C000EEDBF54F0026503F9B4607F1F00900BFDB
:1002D00006EB8600D84600EB0801824638440D46FE
:1002E0000446042202F046F968B10020295C21543A
:1002F000401C0528FADB002149F82610761C102E38
:10030000E6DBBDE8FF8F019809281BD2DFE800F08B
:1003100005B2F5F4F3F2F1F0EF0059F82600494682
:100320000A2878D2DFE800F0050F131F354B6178FB
:100330008C9CD949002050315144225C0A54401C05
:100340000528FADBECE3A07820F008008CE2607866
:1003500020F008006070A07820F01C00A070E07809
:1003600020F00800A9E217F80A0020F0080107F8B9
:100370000A10607820F01C006070A07820F03E0029
:10038000A070E07820F01C00E070207920F00800D8
:100390007AE317F80A0020F01C0107F80A106078C9
:1003A00020F03E006070A87800F00800A070E078AF
:1003B00020F03E00E070207920F01C0064E317F884
:1003C0000A0020F03E0107F80A10687800F00800E3
:1003D0006070A87800F01C00A070E87800F00800B9
:1003E000E070207920F03E004EE318F80A0000F09B
:1003F000080107F80A10687800F01C006070A878FF
:1004000000F03E00A070E87800F01C00E070287951
:1004100000F0080038E329E018F80A0000F01C0199
:1004200007F80A10687800F03E006070A878A070A5
:10043000E87800F03E00E070287900F01C0023E32B
:1004400018F80A0000F03E0107F80A10687860709A
:10045000A878A070E878E070287900F03E0013E3F7
:1004600000202A5C2254401C0528FADB002049F8B1
:10047000260055E359F826100F297DD2DFE801F058
:100480000812161E273E5B80A3C6EAFDFCFBFA009D
:100490008149002050315144225C0A54401C0528F7
:1004A000FADB3DE3207920F04000EDE2207920F0F6
:1004B00060002071E07820F04000FEE1207920F01B
:1004C00070002071E07820F06000E0705DE1E1787C
:1004D000207921F07001E170A17820F0780021F0FE
:1004E0006001A170617821F0400161700AE2FCE2D4
:1004F000E3E2CBE2B6E2A4E292E216E1207920F058
:100500007C002071E07820F07800E070A07820F086
:100510007000A070607820F06000607017F80A002A
:1005200020F0400107F80A102979207901F06001D4
:1005300008432071BCE1207920F07E002071E07832
:1005400020F07C00E070A07820F07800A070607847
:1005500020F07000607017F80A0020F0600107F8C2
:100560000A102979207901F0700108432071E97897
:10057000E07801F0600100E05AE10843E0706EE1CC
:10058000E07820F07E00E070A07820F07C00A07081
:10059000607820F07800607017F80A0020F0700191
:1005A00007F80A10287900F078002071E978E078DF
:1005B00001F070010843E070A978A07801F06001B3
:1005C0000843A0701DE1A07820F07E00A070607844
:1005D00020F07C00607017F80A0020F0780107F81E
:1005E0000A10297901F07C012171E97801F0780184
:1005F000E170AA78A17802F070021143A1706A78C4
:10060000617802F0600211436170D4E0607820F0FC
:100610007E00607017F80A0020F07C0107F80A10CD
:10062000297901F07E012171E97801F07C01E17006
:10063000A97801F07801A1706A78617802F07002FF
:100640001143617018F80A0017F80A1000F06000F2
:1006500001432BE217F80A0020F07E0107F80A1088
:1006600029792171E97801F07E01E170A97801F022
:100670007C0103E04EE03BE027E00FE0A1706978E9
:1006800001F07801617018F80A0017F80A1000F0FC
:100690007000DDE7482600088000002029792171DC
:1006A000E978E170AA78A17802F07E021143A17086
:1006B0006A78617802F07C021143617018F80A00D0
:1006C00017F80A1000F07800C2E729792171E9785B
:1006D000E170A978A1706A78617802F07E02114316
:1006E000617018F80A0017F80A1000F07C00AFE7F4
:1006F00029792171E978E170A978A1706978617030
:1007000018F80A0017F80A2000F07E00024307F8E4
:100710000A2005E229792171E978E170A978A170B0
:100720006978617018F80A10C0E159F826100F298D
:100730007ED2DFE801F0081116202E476D9BC4F22F
:10074000F0EFEEEDEC00FC4900205144225C0A542D
:10075000401C0528FADBE3E117F80A0020F040010D
:10076000A4E117F80A0020F0600107F80A10607889
:1007700020F040004AE017F80A0020F0700107F866
:100780000A10607820F060006070A07820F04000CF
:100790006AE017F80A0020F0780107F80A1060787C
:1007A00020F070006070A07820F06000A070E07809
:1007B00020F04000E07018F80A0017F80A1000F066
:1007C000400045E717F80A0020F07C0107F80A10FE
:1007D000607820F078006070A07820F07000A07041
:1007E000E07820F06000E070207920F04000207177
:1007F00018F80A0017F80A1000F06000014307F823
:100800000A106978607801F040010843607087E160
:1008100017F80A0020F07E0107F80A10607820F02F
:100820007C006070A07820F07800A070E07800E094
:10083000F2E020F07000E070207920F0600020717C
:1008400018F80A0017F80A2000F07000024307F8B1
:100850000A206978607801F0600108436070A97827
:10086000A07801F040010843A07059E1607820F0C1
:100870007E006070A07820F07C00A070E07820F00E
:100880007800E070207920F07000207118F80A00DC
:1008900000F0780107F80A106978607801F07001BB
:1008A00008436070A978A07801F060010843A07047
:1008B000E978E07801F040010843E07030E1A07889
:1008C00020F07E00A070E07820F07C00E0702079BD
:1008D00020F07800207118F80A0000F07C0107F879
:1008E0000A10687800F078006070A978A07801F0AC
:1008F00070010843A070E978E07801F060010843D6
:10090000E0702079297901F040010843BCE077E0EC
:1009100067E053E03BE021E0FFE7E07820F07E0075
:10092000E070207920F07C00207118F80A0000F0B7
:100930007E0107F80A10687800F07C006070A878E3
:1009400000F07800A070E978E07801F070010843C9
:10095000E0702979207901F06001D6E7207920F054
:100960007E00207118F80A1007F80A10687800F065
:100970007E006070A87800F07C00A070E87800F03D
:100980007800E0702979207901F07001BDE718F84E
:100990000A1007F80A1068786070A978A07801F04A
:1009A0007E010843A070E978E07801F07C010843FB
:1009B000E0702979207901F07801A6E718F80A108B
:1009C00007F80A1068786070A878A070E978E07875
:1009D00001F07E010843E0702979207901F07C0163
:1009E00093E718F80A1007F80A1068786070A8787A
:1009F000A070E878E0702979207901F07E0184E721
:100A000018F80A1007F80A1068786070A878A070C3
:100A1000E878E070287937E0002149F826107FE077
:100A200059F826100020C1F107022B5C215CD3404D
:100A300003F0010343EA41032354401C0528F4DB7F
:100A40006EE059F826100020C1F107012B5C225CF2
:100A50008B4003F0800343EA52032354401C0528D3
:100A6000F4DB5DE00020211849782154401C042863
:100A7000F9DB59F82600002805DD00EB0801AAF192
:100A80000100085C00E00020207149E004202118EA
:100A900011F8011C2154401E0028F8DC59F82600EA
:100AA000002806DDC0F104002844417807F80A1048
:100AB00036E0002007F80A0032E059F8261000203E
:100AC00081420EDB0B1A072B0BDC15F800C0C3F1BB
:100AD0000703225C2CFA03FC0CF0010343EA4203F7
:100AE0002354401C0528EBDB1AE059F8262000208F
:100AF000824212DBA2EB000CBCF1070F0DDCC0F14F
:100B00000403CCF1070C15F80380E15C28FA0CF81B
:100B100008F0010C4CEA4101E154401C0528E7DBD8
:100B200059F82610491C49F82610039800283FF46C
:100B3000E5ABBDE8FF8F0000D0000020FEE700001D
:100B400070B51B4D044600222021284600F010FB02
:100B500000220821284600F00BFB002240212846F5
:100B600000F006FB00221021284600F001FB0022C5
:100B70008021284600F0FCFA052C17D2DFE804F0AB
:100B80000306090C0F00012220210AE0012208219E
:100B900007E00122402104E00122102101E00122AE
:100BA00080212846BDE8704000F0E2BA70BD000028
:100BB0000008014070B51B4D04460022082128465C
:100BC00000F0D6FA00224021284600F0D1FA002297
:100BD0001021284600F0CCFA00228021284600F09F
:100BE000C7FA00222021284600F0C2FA052C17D2AD
:100BF000DFE804F00306090C0F00012208210AE0D7
:100C00000122402107E00122102104E0012280217D
:100C100001E0012220212846BDE8704000F0A8BA7A
:100C200070BD0000000C0140014800F08FB80000CA
:100C3000F0020020014800F089B80000AC0200205A
:100C400030B590F840500124AC40C56B6C6004682E
:100C500063604368102B036803D099600068C2602A
:100C600030BD9A600068C16030BD7047704710B5F4
:100C700090F821100022022905D00421816380F818
:100C80002020012010BD01680B6823F00E030B60CB
:100C900001680B6823F001030B6090F84030C46BCF
:100CA000012101FA03F3636080F8211080F820200D
:100CB000104610BD10B590F821100024022903D071
:100CC0000421816301243DE001680A6822F00E02DC
:100CD0000A6001680A6822F001020A601A4A016883
:100CE000914201D1012121E0174A1432914201D1F0
:100CF00010211BE0144A2832914201D1891515E0D8
:100D0000114A3C32914201D189140FE00E4A50320F
:100D1000914202D14FF4803108E00B4A6432914293
:100D200002D14FF4801101E04FF08071064A083A79
:100D30005160012180F82110002180F82010416BC2
:100D400001B18847204610BD080002402DE9F05F40
:100D5000C16B0C6801680B68D0F840C0042202FA2D
:100D60000CF2494DDFF824A1494E4A4FDFF828B173
:100D7000DFF828E122422CD05A072AD50A689206C9
:100D800003D40A6822F004020A600168A94201D172
:100D9000042219E0514501D1402215E0B14202D1AF
:100DA0004FF4806210E0B94202D14FF480420BE070
:100DB000594502D14FF4802206E0714502D14FF42B
:100DC000800201E04FF080622F4908394A60C16A11
:100DD0003BE04FF0020808FA0CF818EA040F4FF055
:100DE00000094FF0010235D05FEA837832D50B68F5
:100DF0009B0605D40B6823F00A030B6080F82120C2
:100E00000168A94201D1022219E0514501D12022F5
:100E100015E0B14202D14FF4007210E0B94202D1A4
:100E20004FF400520BE0594502D14FF4003206E076
:100E3000714502D14FF4001201E04FF000721249E7
:100E400008394A6080F82090816A00291AD0BDE8EC
:100E5000F05F0847082505FA0CF5254212D01B075C
:100E600010D50B6823F00E030B6090F84010C36B95
:100E700002FA01F15960826380F8212080F8209005
:100E8000016BE2E7BDE8F09F080002401C00024051
:100E90003000024044000240580002406C00024012
:100EA00030B528B308C8134914221944B1FBF2F134
:100EB0008900C16310498163022141771A6843F6B2
:100EC000F0718A43D0E900142143D0E902452C4354
:100ED0002143046921434469214384692143114327
:100EE000196000214163012242770177084630BD35
:100EF000012030BDF8FFFDBF0000024070B5044680
:100F000090F82000002501280CD0012084F8200052
:100F100094F821600020012E06D084F820000225DC
:100F2000284670BD022070BD022684F82160A063AF
:100F30002068066826F0010606602046FFF780FE5E
:100F4000E06A00282068016802D041F00E0106E046
:100F500021F0040101602068016841F00A0101608C
:100F60002068016841F001010160D9E770B50446CD
:100F700000F004F90546601C02D0044800780444DF
:100F800000F0FCF8401BA042FAD370BD1C0000200A
:100F90002DE9F84FDFF8B891002409F1040A0AF1AD
:100FA000040B23460F270BF1040EC9E00125A540D1
:100FB0002A40AA427DD1674ED1F804C0ACEB0608A6
:100FC000B44532D014DCBCF1030F3AD009DCBCF1DB
:100FD000000F2AD0BCF1010F1CD0BCF1020F31D19F
:100FE0001DE0BCF1110F17D0BCF1120F2AD119E08E
:100FF000B8F5881F19D006DCB8F5803F15D0B8F5D4
:10100000801F1FD111E0B8F5001F0ED0B8F5041FE6
:1010100018D10AE0CB6815E0CB681B1D12E0CB6845
:1010200008330FE0CB680C330CE08B682BB1012B3D
:101030004FF0080303D0456104E0042302E005619A
:1010400000E00023FF2A01D8064601E000F1040673
:101050004FEA840501D9A5F12005D6F8008007FAEA
:1010600005FC28EA0C0803FA05F548EA0508C6F865
:1010700000804D68ED0062D5374DAE6946F001063F
:10108000AE61AD6924F0030605F001050095334D0E
:1010900006EB050CDCF80850A607360F07FA06F831
:1010A00025EA0805DFF8B880404503D14FF0000875
:1010B00017E044E0DFF8AC80404502D14FF0010872
:1010C0000FE0DFF8A480404502D14FF0020808E0AD
:1010D000DFF89880404502D14FF0030801E04FF05F
:1010E000040808FA06F848EA0508CCF808804D68B4
:1010F000D9F80060ED034D4601D5164300E0964354
:101100002E604D68DAF80060AD03554601D51643F0
:1011100000E096432E604D68DBF80060ED025D460E
:1011200001D5164300E096432E604D68DEF800605E
:10113000AD02754601D5164300E096432E60641C4F
:101140000D682A46E5407FF431AFBDE8F88F000016
:101150000004014000001110001002400000014096
:1011600000080140000C0140001001400014014043
:101170000AB1016170470904FBE70000014880687B
:10118000704700001C00002002488168027811446A
:10119000816070471C000020074810B5016841F0CD
:1011A00010010160032000F075F8002000F006F83F
:1011B00000F024F8002010BD0020024070B50D4D55
:1011C00004464FF47A712878B1FBF0F00A490968B7
:1011D000B1FBF0F000F0ECFA48B9102C07D2002275
:1011E0002146501E00F036F800206C6070BD0120D2
:1011F00070BD00001C000020280000200C4808B52D
:10120000816941F001018161816901F00101009171
:10121000C16941F08051C161C06900F08050009007
:101220000448416821F0E06141F00071416008BD6F
:101230000010024000000140002809DB00F01F02FE
:10124000012191404009800000F1E020C0F8001128
:1012500070470000F0B40E4B1B680C46C3F302232A
:10126000C3F10705042D00D90425191D072901D252
:10127000002300E0DB1E012606FA05F1491E21408D
:1012800099409E40761E16403143F0BC00F01CBFD2
:101290000CED00E0064900F0070208684FF6FF0376
:1012A000184040EA0220034A1043086070470000DB
:1012B0000CED00E00000FA052DE9F0470F460500AF
:1012C00061D0434E306800F00700B84209D2306860
:1012D00020F0070038433060306800F00700B84263
:1012E00051D128683B4C810712D5400703D560686F
:1012F00040F4E06060602878000703D5606840F43F
:10130000605060606068A96820F0F0000843606089
:101310002878C00728D06868012810D021680228E2
:1013200010D0890700292EDA616821F003010143FA
:101330006160FFF723FF804641F288390DE02168A4
:101340008903EFE78901EDE7FFF718FFA0EB08013C
:10135000494502D90320BDE8F0876068696800F05C
:101360000C00B0EB810FEFD1306800F00700B842FD
:101370000BD9306820F0070038433060306800F047
:101380000700B84201D00120E5E72878400705D5DD
:101390006068E96820F4E06008436060287800072E
:1013A00006D56068296920F4605040EAC100606099
:1013B00000F038F86168084AC1F30311515CC84075
:1013C0000649086006480068FFF7F8FE0020C2E7FB
:1013D0000020024000100240D6290008280000200A
:1013E000200000200448054900684968044AC1F308
:1013F0000221515CC84070472800002000100240C4
:10140000E62900080448054900684968044AC1F310
:10141000C221515CC84070472800002000100240E3
:10142000E629000812A185B00FC98DE80F0014A0AD
:10143000144A006804905168134801F00C03042B0F
:1014400010D0082B0ED1C1F38343C9031DF803004C
:101450000AD5516804AAC1F34041515C0A4A50437D
:10146000B0FBF1F005B0704708494843FAE70000C7
:1014700002030405060708090A0B0C0D0E0F1010D5
:10148000010200000010024000127A0000093D0035
:101490002DE9F84F040070D02078C04DC00749D026
:1014A0006868C0F38100012807D06868C0F3810034
:1014B000022809D16868C00306D52868800339D599
:1014C00060680028E7D035E06068B0F5803F0BD059
:1014D00010B1B0F5A02F11D0286820F4803028601A
:1014E000286820F4802002E0286840F480302860DA
:1014F000606890B1FFF742FE06460AE0286840F4B3
:1015000080202860F0E700BFFFF738FE801B6428CA
:1015100073D828688003F7D50CE0FFF72FFE064646
:1015200005E000BFFFF72AFE801B6428F0D828687A
:101530008003F7D420789A4E80074FF001094FF0CE
:10154000000839D5686810F00C0F07D06868C0F340
:101550008100022809D16868C00306D42868800782
:1015600014D52069012808D110E02069B0B1C6F86F
:101570000090FFF703FE074605E00AE1FFF7FEFDD6
:10158000C01B0228C4D828688007F7D5286861697D
:1015900020F0F80040EAC10028600DE0C6F80080A5
:1015A000FFF7ECFD074604E0FFF7E8FDC01B02284B
:1015B00023D828688007F7D4207800072CD57948ED
:1015C000A169D9B1C0F80090FFF7D8FD074604E043
:1015D000FFF7D4FDC01B02280FD8686A8007F7D533
:1015E00071484FF4FA510068B0FBF1F0009000BF71
:1015F0000098411E0091FAD20EE080E0C0F8008011
:10160000FFF7BCFD074604E0FFF7B8FDC01B02284A
:1016100075D8686A8007F7D42078400760D5E869F4
:101620000027C00008D4E86940F08050E861E8690C
:10163000012700F0805000905C480168C90513D470
:101640000168834641F480710160FFF797FD82468F
:1016500006E000BFFFF792FDA0EB0A0064284ED819
:10166000DBF80000C005F5D5E06801280AD008B114
:10167000052813D0286A20F001002862286A20F08B
:10168000040002E0286A40F001002862E06841F2AC
:10169000883B98B1FFF772FD82460BE0286A40F064
:1016A00004002862EEE700BFFFF768FDA0EB0A0127
:1016B00059455AD8286A8007F6D50CE0FFF75EFD39
:1016C000824605E0FFF75AFDA0EB0A0159454CD8C8
:1016D000286A8007F6D41FB1E86920F08050E861DD
:1016E000E06988B36968C1F38101022944D0022806
:1016F000C6F8608004D0FFF741FD044638E034E0CE
:10170000FFF73CFD074604E0FFF738FDC01B022849
:101710002BD828688001F7D4206AB0F5803F05D126
:101720006868A16820F4003008436860D4E90801C3
:101730000843696821F4741108436860C6F8609032
:10174000FFF71CFD044606E025E000BFFFF716FD8D
:10175000001B022809D828688001F7D51BE000BFCC
:10176000FFF70CFD001B022802D90320BDE8F88F0B
:1017700028688001F4D40EE00128F7D06868226A56
:1017800000F48031914204D1616A00F47010884203
:1017900001D00120EAE70020E8E700000010024045
:1017A00000004242800442422800002000700040B5
:1017B00010B5401EB0F1807F01D3012010BD4FF065
:1017C000E02460610F21601700F07EFC0020A06122
:1017D00007202061002010BD10B504460068416953
:1017E00094F83920C1F3C011212A0BD151B14169BC
:1017F00021F080014161206B08B1FFF738FA2046E3
:1018000000F03AFB2068416994F83A20C1F3801156
:10181000222A0BD151B1416921F040014161606B35
:1018200008B1FFF724FA204600F018FB002010BD95
:101830007047000070B5026804461068D1685369AB
:1018400010F00F0F50D003F0010501F490763543EE
:101850005DD0C20705D0CA0503D5E26B42F0010294
:10186000E263420705D5DA0703D0E26B42F00202D9
:10187000E263820705D5DA0703D0E26B42F0040287
:10188000E263020705D5DA0703D0E26B42F00802F3
:10189000E263E26B002A33D0800604D5880602D5C5
:1018A000204600F0F2FA20684069E16BC0F3801036
:1018B000090700D428B3204600F0D0FA2068416917
:1018C00049061AD5416921F040014161606BA0B120
:1018D0001B494163606BFFF7EDF9002810D0606B86
:1018E000416BBDE870400847830610D58B060ED5C6
:1018F0002046BDE8704000F0C8BA2046FFF798FFC8
:1019000070BD2046FFF794FF0020E06370BD030622
:1019100006D50B0604D52046BDE8704000F05CBB40
:101920004006F3D54806F1D5D168204621F04001A4
:10193000D160202184F8391000F0F2F870BD000069
:10194000BD1D000870B5040004D094F839000025CE
:1019500010B106E0012070BD84F83850204600F038
:1019600023F8242084F839002068C16821F400514C
:10197000C160204600F0D4FA2068016921F490414A
:1019800001612068416921F02A0141612068C16834
:1019900041F40051C160E563202084F8390084F8E7
:1019A0003A00002070BD0000F0B585B00024064666
:1019B000009401940294039400682D49884254D104
:1019C0002C48816941F480418161816901F4804141
:1019D0000491816941F0040181618069264D00F024
:1019E000040004904FF40070009002200190032046
:1019F000039069462846FFF7CBFA2815CDE9000485
:101A0000694628460294FFF7C3FA1D4D1B488027FC
:101A1000C5E90004C5E902472C616C61AC61284648
:101A2000EC61FFF73DFA08B1FFF720F975636E62CC
:101A3000134D12484435143801C5102091C5104883
:101A400045F8104944306C61AC61EC61FFF728FA4D
:101A500008B1FFF70BF935630022114625206E62AD
:101A6000FFF7F8FB2520FFF7E7FB05B0F0BD00000E
:101A700000380140001002400008014058000240B8
:101A8000AC020020F8B5044690F83A0020283CD17A
:101A9000C1B3BAB394F83800012836D0012084F8D5
:101AA0003800A162A2850025E563222084F83A006F
:101AB000636B17489862636B1648D862636B16486D
:101AC0001863606B134645630846666B21680246DF
:101AD0003046091DFFF712FA20680168416800913D
:101AE00084F83850C16841F48071C1602068416950
:101AF00041F0010141612068416941F040014161CB
:101B00000020F8BDFFE70120FBE70220F9E7000015
:101B1000171E0008531E0008CD1D000870477047AF
:101B20007047FEE70D4808B5416941F00101416188
:101B30004069002200F00100009011460E20FFF7DE
:101B400089FB0E20FFF778FB002211460F20FFF7DC
:101B500081FBBDE808400F20FFF76EBB001002407C
:101B600070B586B0002000900190029003901D484F
:101B7000816941F020018161816901F020010491B6
:101B8000816941F004018161816901F004010491DE
:101B9000816941F0080181618069134D00F00800FE
:101BA00049F6FF140490002221462846FFF7E0FA88
:101BB0000E4E0022FF213046FFF7DAFA009401248E
:101BC00001940294694628460394FFF7E1F9FF2047
:101BD000CDE900040294694630460394FFF7D8F932
:101BE00006B070BD0010024000080140000C01402A
:101BF0000C4810B50A4901604FF4E1314160002101
:101C000081600C22C160C0E904128161C161FFF7EB
:101C100099FE002803D0BDE81040FFF727B810BD9B
:101C2000003801406C020020FEE77047704700005A
:101C30002DE9F84FDFF8DCB0DFF8DC9000244FF43A
:101C4000805A0120FFF792F92046FEF779FF2046DF
:101C5000FEF7B0FF00224FF400614E464846FFF702
:101C600087FA002201213046FFF782FAC4F104000E
:101C70000025B1460090C5F1060000EB8001274821
:101C8000002601EB000805EB850108440099471880
:101C9000012251464846FFF76BFA01221146584689
:101CA000FFF766FA18F80400C6F10601C84000F014
:101CB00001024FF480714846FFF75AFA97F8230063
:101CC000C6F107018840C0F3C01202214846FFF761
:101CD0004FFA002251464846FFF74AFA00220121F6
:101CE0005846FFF745FA761C072ED1DB6D1C082DF0
:101CF000C1DB0122D1024D464846FFF739FA0122E5
:101D000011462846FFF734FA641C052C99DBBDE820
:101D1000F88F0000000C0140000801403000002056
:101D20007047FFF731BA30B58FB028216846FEF70B
:101D300022FA14210AA8FEF71EFA01210804CDE9AF
:101D400000100024029402250491CDE907504FF4BD
:101D5000E01009906846FFF79BFB0F20CDE90A05CC
:101D60006802CDE90C4002210AA80E94FFF7A4FAFC
:101D70000FB030BD0D48016841F0010101604168BC
:101D80000B4A1140416001680A4A11400160016834
:101D900021F480210160416821F4FE0141604FF48B
:101DA0001F0181600449C0030860704700100240B1
:101DB0000000FFF8FFFFF6FE08ED00E010B5406AF6
:101DC0000021C185C184FFF733FD10BD70B5446AA1
:101DD0002068406994F83910C0F3C010002521290B
:101DE00004D118B1E584204600F046F82068406927
:101DF00094F83A10C0F38010222904D118B1E58577
:101E0000204600F02BF8E06B40F01000E063204625
:101E1000FFF70EFD70BD10B50146406A09680968FC
:101E2000890613D40021C1850168CA6822F4807232
:101E3000CA6001684A6922F001024A6101684A6980
:101E400022F040024A61202180F83A10FFF766FE36
:101E500010BD10B5406AFFF762FE10BD0168CA6888
:101E600022F49072CA6001684A6922F001024A6154
:101E7000202180F83A1070470168CA6822F0C00239
:101E8000CA60202180F83910704710B590F83A10D8
:101E9000222901D0022010BD8168B1F5805F11D0E8
:101EA0000169002901681FD0496801F07F03816A38
:101EB0004A1C82620B70C18D491E0904090CC18540
:101EC00018D02BE00269816A002A0268526805D0A6
:101ED000D2B20A80816A491C8162ECE7C2F308022F
:101EE0000A80816A891CF7E74A68816A4B1C836211
:101EF0000A70E0E70168CA6822F02002CA6001683F
:101F0000CA6822F48072CA6001684A6922F001023C
:101F10004A61202180F83A10FFF700FE002010BD32
:101F20002DE9F041044600680169E26821F440515E
:101F3000114301612169A068084361690843216870
:101F4000CA6841F20C639A430243CA60206841693F
:101F5000A26921F44071114341611E492068642542
:101F60003226884202D1FFF74DFA01E0FFF73AFA34
:101F700000EBC00101EB001160686FF018078000F2
:101F8000B1FBF0F2B2FBF5F2B1FBF0F37A4303EBF5
:101F90008202B1FBF0F306EB0212B2FBF5F2B3FBE7
:101FA000F5F302F0F00202EB0312B1FBF0F3B1FB28
:101FB000F0F0B0FBF5F0784303EB800006EB001087
:101FC000B0FBF5F0216800F00F0010448860BDE818
:101FD000F08100000038014090F83910212901D02B
:101FE000022070478168B1F5805F016A0BD04A1CFE
:101FF0000262026809785160C18C491E0904090C0B
:10200000C1840ED017E009880268C1F3080151604D
:1020100001690029016A02D0491C0162ECE7891CB0
:10202000FBE70168CA6822F08002CA600068C168E4
:1020300041F04001C16000207047000038B51348EE
:10204000FFF7F8FB114800680168C1F3001100298F
:102050001AD00168002541680091016840680B486A
:10206000FFF7BAFB0A48006840680A4CC0F1FA0062
:1020700020800948FEF7DEF82580BDE83840FA22C6
:1020800005490248FFF7FEBC38BD00006C02002085
:10209000AC0200200000002070010020FEE70000DC
:1020A0000FB4084B10B504A902AA039800F02CF84D
:1020B000044602A9002000F058FA204610BC5DF842
:1020C00014FB00006B2500080907090E002804DB3B
:1020D00000F1E02080F80014704700F00F0000F1DC
:1020E000E02080F8141D704702E008C8121F08C1E4
:1020F000002AFAD170477047002001E001C1121F89
:10210000002AFBD1704700002DE9FF4F8DB00F462C
:102110000546002606E025280BD0DDE90F12904782
:102120006D1C761C28780028F5D111B03046BDE82A
:10213000F08F0024A246A1460122EC4900E00443AE
:1021400015F8013F203B02FA03F00842F7D1287846
:102150002A2810D06FF02F022878A0F13001092929
:1021600014D80AEB8A0102EB410144F0020400EBAF
:10217000010A6D1CF0E701CF5FEA000A03D544F4C1
:102180000054CAF1000A44F002046D1C28782E287D
:1021900017D115F8010F44F004042A280ED06FF06F
:1021A0002F022878A0F1300109290AD809EB89010A
:1021B00002EB410100EB01096D1CF2E757F8049BAB
:1021C0006D1C28786C280FD006DC4C2817D06828A6
:1021D0000DD06A2814D104E0742810D07A280FD1C9
:1021E0000DE044F400140AE044F4801401E044F4E7
:1021F00040146978814202D104F580146D1C6D1C75
:102200002A786E2A1FD00CDC632A31D004DC002A25
:102210008BD0582A11D1A3E0642A68D0692A0CD146
:1022200065E0732A2ED004DC6F2A73D0702A04D1A3
:102230009BE0752A6FD0782A6ED01046DDE90F1228
:102240009047761C50E1C4F30250022806D00328C0
:1022500009D0042801CF09D0066045E101CFF1176C
:10226000C0E9006140E101CF06803DE106703BE13D
:1022700017F8040B8DF8000000208DF80100EB46E4
:10228000012003E057F804BB4FF0FF3061074FF027
:10229000000102D40DE008F10101884649450FDA3A
:1022A0008045F8DB1BF808100029F4D108E008F19C
:1022B000010188468142FADB1BF808100029F6D19B
:1022C000DDE90F23AAEB08008146214600F036F92C
:1022D000304400EB080604E0DDE90F121BF8010BA7
:1022E0009047B8F10108F7D221464846F7E00A21A5
:1022F000C4F302534FF0000B0891022B04D001CF1E
:10230000C117032B09D00AE0FF1D27F00707F7E8E4
:10231000020108E032E01FE020E000B2C117042B08
:1023200001D140B2C117031E71F1000307DA4FF06B
:10233000000CD0EB0C006CEB01012D2302E0230517
:1023400004D52B238DF82430012303E0E30701D0CB
:102350002023F7E7984658E00A2110E010210EE00C
:1023600010204FF0000B08900CE010214FF0000BF4
:1023700044F004044FF00809089103E008214FF0ED
:10238000000B0891C4F30253022B04D001CF0021AB
:10239000032B06D006E0FF1D27F00707F7E8020130
:1023A00003E080B2042B00D1C0B24FF00008230735
:1023B0002BD5702A07D0DDF820C08CF0100C5CEA19
:1023C0000B0C05D00EE040238DF82430012308E0EB
:1023D00050EA010306D030238DF824308DF82520F3
:1023E00002239846DDF820C08CF0080C5CEA0B0C48
:1023F0000BD150EA010301D1630706D530238DF8D4
:1024000024304FF00108A9F10109582A04D038A25C
:102410000B9208AA0A920BE03AA2F9E75B46089AE7
:10242000FDF7B4FE0B9B9B5C0A9A521E0A92137036
:1024300050EA0102F2D10A98ADEB000000F1200B46
:10244000600702D524F4803401E04FF00109D9453A
:1024500002DDA9EB0B0000E0002000EB0B01414482
:102460000890AAEB010AE00306D4DDE90F23214618
:10247000504600F063F806444FF0000908E009A94F
:1024800011F80900DDE90F12904709F10109761CE6
:10249000C145F4DBE0030CD5DDE90F2321465046AE
:1024A00000F04CF8064404E0DDE90F1230209047BC
:1024B000761C0899481E08900029F5DC08E00A9867
:1024C0000A990078491C0A91DDE90F129047761CA1
:1024D000BBF10001ABF1010BF1DC21465046DDE917
:1024E0000F2300F019F806446D1C1BE609280100B3
:1024F000303132333435363738396162636465667A
:10250000000000003031323334353637383941423B
:1025100043444546000000002DE9F04104460025F3
:102520001E461746880404D405E039462020B047EB
:102530006D1C641EF9D52846BDE8F0812DE9F041F7
:10254000044600251E469046C80301D5302700E00A
:102550002027880404D505E041463846B0476D1C65
:10256000641EF9D52846BDE8F0810A68531C0B604B
:102570001070704730B5002306E0C45CCD5CAC42FF
:1025800001D0002030BD5B1C9342F6DB012030BD42
:102590000025FEF701FEFFF7C6FBFFF7E1FAFFF7A4
:1025A000C1FAFFF725FB22480068C16841F010011D
:1025B000C160FA221F491E48FFF764FA1E4E3446D6
:1025C000307E012822D114206D1C95FBF0F100FB18
:1025D000115050B9FDF7B6FD0746FDF7B3FD0246B1
:1025E0003B4616A1201DFFF75BFDC82195FBF1F0CE
:1025F00000EBD07222F00102801A207095FBF1F0FE
:10260000092190FBF1F201FB120060702646A378CD
:1026100022786178201DFDF739FE002403E000BF19
:10262000FFF706FB641CF078A042C8DDF8E7000065
:102630006C02002070010020020000202530375875
:102640002530375800000000000000000000005F47
:10265000000001000001007C17147C1722457F4B0D
:102660003249370C72494F59677848000100000021
:1026700000003E410000611E0000140C3E0C1408D6
:10268000083E0808404000000008080808084040CC
:1026900000000040300806013E5149453E0000025E
:1026A0007F0042615149462141454B311814127F48
:1026B000102F454545393E49494932010179050305
:1026C0003649494936264949493E00002400000060
:1026D000004400000814222241141414141441224E
:1026E00022140807015109073E5D635F61601C13F6
:1026F0001C607F494949763F414141227F41414128
:102700003E7F494949417F090909013E4141513212
:102710007F0808087F00417F41002040413F017F42
:10272000080C32417F404040407F0C300C7F7F02DC
:102730000C107F3E4141413E7F090909063E41415F
:10274000617E7F09093946464949493101017F01C6
:10275000013F4040403F031C601C031F601F601F7F
:10276000413608364103047804036151494543006A
:10277000007F0000010608304000007F00000000DC
:102780000000000808080808000100000068545410
:1027900054787F4844443838444444483844444496
:1027A0007F3854545418047E450505782424544831
:1027B0007F0404047804447D400000000405797F10
:1027C00010102C4400417F400078047C04047C08F5
:1027D00004047838444444387C44444438384444FD
:1027E000447C447C080404685454546C043C4444C1
:1027F000403C4040447C0C3440340C3C601C601C29
:10280000442C102C44041C601C044464544C4400AC
:102810000000000000005F5F000000010100303E8A
:102820007E7E1000477F79000F3F7F7270367F7F7A
:102830007A40000101000000007F7F0000777700F0
:1028400000141C1C1C1408081C1C0800404000003C
:102850000008080800004040000040783E07013EA4
:102860007F41413E00067F7F006273796F66216180
:102870004D7F331C127F7F102667457D383E7F4D8C
:102880007D3801717F0F03367FC949360E5B797F32
:102890001E00000000000000444400081C36220016
:1028A00014141414140022361C080203090F063EE7
:1028B0007F5F7F3E7E7F09097E7F7F494F703E7F2D
:1028C0004163627F7F41413E7F7F4949417F7F096C
:1028D00009013E7F4153327F7F08087F417F7F415E
:1028E0000061417F7F017F7F1C36637F7F404040D6
:1028F0007F0F3C0F7F7F7F04087F3E7F41413E7FFB
:102900007F090F063E7F41617E7F7F09794E666FAA
:10291000497932017F7F01013F7F40403F7F7F3017
:102920000C033F781E783F71197F4C47070F780CD6
:1029300007637349456300007F7F00000E7E7000CF
:10294000000000000000000000000808080808005F
:1029500001010000687C7C7C403F7F447C38387CEF
:10296000444400387C447F7F287C545C18047E7F7C
:102970000501787C7C5C047F7F447C78007C7C0053
:102980000000007D7D006F7F7C6C44007F7F000035
:102990007C7C7C78787C7C447C78387C447C383CBB
:1029A0007C447C38387C447C38047C7C0400007C8B
:1029B0007C5400047C7C44003C7C447C78043C3C9B
:1029C0001C041C3C7C7C14446C7C7C04041C7C7CBF
:1029D0000400747C4C0000000000000000000102B4
:1029E00003040607080900000000010203040000B8
:1029F000102A00080000002030000000E820000835
:102A0000402A00083000002008070000F8200008D5
:102A10000000010000052020202020202020202070
:102A20002020202020000000000000000100000005
:102A300010000000000000000024F400000000006E
:04000005080000ED02
:00000001FF
